{
  "contractName": "Contract",
  "abi": [
    {
      "inputs": [
        {
          "internalType": "uint256",
          "name": "_date",
          "type": "uint256"
        },
        {
          "internalType": "string",
          "name": "_name",
          "type": "string"
        },
        {
          "internalType": "string",
          "name": "_description",
          "type": "string"
        },
        {
          "internalType": "string",
          "name": "_content",
          "type": "string"
        },
        {
          "internalType": "string[]",
          "name": "_terms",
          "type": "string[]"
        },
        {
          "internalType": "uint128",
          "name": "_totalSignerCount",
          "type": "uint128"
        },
        {
          "internalType": "string",
          "name": "_authName",
          "type": "string"
        },
        {
          "internalType": "string",
          "name": "_authHash",
          "type": "string"
        }
      ],
      "stateMutability": "nonpayable",
      "type": "constructor"
    },
    {
      "anonymous": false,
      "inputs": [
        {
          "indexed": false,
          "internalType": "string[]",
          "name": "signers",
          "type": "string[]"
        }
      ],
      "name": "signingComplete",
      "type": "event"
    },
    {
      "inputs": [],
      "name": "authenticator",
      "outputs": [
        {
          "internalType": "address",
          "name": "addr",
          "type": "address"
        },
        {
          "internalType": "string",
          "name": "name",
          "type": "string"
        },
        {
          "internalType": "string",
          "name": "hash",
          "type": "string"
        },
        {
          "internalType": "uint256",
          "name": "dateSigned",
          "type": "uint256"
        }
      ],
      "stateMutability": "view",
      "type": "function"
    },
    {
      "inputs": [],
      "name": "content",
      "outputs": [
        {
          "internalType": "string",
          "name": "",
          "type": "string"
        }
      ],
      "stateMutability": "view",
      "type": "function"
    },
    {
      "inputs": [],
      "name": "date",
      "outputs": [
        {
          "internalType": "uint256",
          "name": "",
          "type": "uint256"
        }
      ],
      "stateMutability": "view",
      "type": "function"
    },
    {
      "inputs": [],
      "name": "description",
      "outputs": [
        {
          "internalType": "string",
          "name": "",
          "type": "string"
        }
      ],
      "stateMutability": "view",
      "type": "function"
    },
    {
      "inputs": [],
      "name": "name",
      "outputs": [
        {
          "internalType": "string",
          "name": "",
          "type": "string"
        }
      ],
      "stateMutability": "view",
      "type": "function"
    },
    {
      "inputs": [
        {
          "internalType": "uint256",
          "name": "",
          "type": "uint256"
        }
      ],
      "name": "signers",
      "outputs": [
        {
          "internalType": "address",
          "name": "addr",
          "type": "address"
        },
        {
          "internalType": "string",
          "name": "name",
          "type": "string"
        },
        {
          "internalType": "string",
          "name": "hash",
          "type": "string"
        },
        {
          "internalType": "uint256",
          "name": "dateSigned",
          "type": "uint256"
        }
      ],
      "stateMutability": "view",
      "type": "function"
    },
    {
      "inputs": [],
      "name": "stage",
      "outputs": [
        {
          "internalType": "enum Contract.Stage",
          "name": "",
          "type": "uint8"
        }
      ],
      "stateMutability": "view",
      "type": "function"
    },
    {
      "inputs": [
        {
          "internalType": "uint256",
          "name": "",
          "type": "uint256"
        }
      ],
      "name": "termsNconditions",
      "outputs": [
        {
          "internalType": "string",
          "name": "",
          "type": "string"
        }
      ],
      "stateMutability": "view",
      "type": "function"
    },
    {
      "inputs": [
        {
          "internalType": "string",
          "name": "_name",
          "type": "string"
        },
        {
          "internalType": "string",
          "name": "_hash",
          "type": "string"
        },
        {
          "internalType": "uint256",
          "name": "_date",
          "type": "uint256"
        }
      ],
      "name": "sign",
      "outputs": [],
      "stateMutability": "nonpayable",
      "type": "function"
    }
  ],
  "bytecode": "0x60806040525f805f6101000a81548160ff021916908360028111156200002a57620000296200024e565b5b02179055503480156200003b575f80fd5b5060405162001d7438038062001d7483398181016040528101906200006191906200057a565b87600181905550866002908162000079919062000926565b5085600390816200008b919062000926565b5084600490816200009d919062000926565b508360059080519060200190620000b692919062000169565b508260075f6101000a8154816fffffffffffffffffffffffffffffffff02191690836fffffffffffffffffffffffffffffffff1602179055503360085f015f6101000a81548173ffffffffffffffffffffffffffffffffffffffff021916908373ffffffffffffffffffffffffffffffffffffffff160217905550816008600101908162000145919062000926565b5080600860020190816200015a919062000926565b50505050505050505062000a0a565b828054828255905f5260205f20908101928215620001b4579160200282015b82811115620001b3578251829081620001a2919062000926565b509160200191906001019062000188565b5b509050620001c39190620001c7565b5090565b5b80821115620001ea575f8181620001e09190620001ee565b50600101620001c8565b5090565b508054620001fc906200072f565b5f825580601f106200020f57506200022e565b601f0160209004905f5260205f20908101906200022d919062000231565b5b50565b5b808211156200024a575f815f90555060010162000232565b5090565b7f4e487b71000000000000000000000000000000000000000000000000000000005f52602160045260245ffd5b5f604051905090565b5f80fd5b5f80fd5b5f819050919050565b620002a0816200028c565b8114620002ab575f80fd5b50565b5f81519050620002be8162000295565b92915050565b5f80fd5b5f80fd5b5f601f19601f8301169050919050565b7f4e487b71000000000000000000000000000000000000000000000000000000005f52604160045260245ffd5b6200031482620002cc565b810181811067ffffffffffffffff82111715620003365762000335620002dc565b5b80604052505050565b5f6200034a6200027b565b905062000358828262000309565b919050565b5f67ffffffffffffffff8211156200037a5762000379620002dc565b5b6200038582620002cc565b9050602081019050919050565b5f5b83811015620003b157808201518184015260208101905062000394565b5f8484015250505050565b5f620003d2620003cc846200035d565b6200033f565b905082815260208101848484011115620003f157620003f0620002c8565b5b620003fe84828562000392565b509392505050565b5f82601f8301126200041d576200041c620002c4565b5b81516200042f848260208601620003bc565b91505092915050565b5f67ffffffffffffffff821115620004555762000454620002dc565b5b602082029050602081019050919050565b5f80fd5b5f620004806200047a8462000438565b6200033f565b90508083825260208201905060208402830185811115620004a657620004a562000466565b5b835b81811015620004f457805167ffffffffffffffff811115620004cf57620004ce620002c4565b5b808601620004de898262000406565b85526020850194505050602081019050620004a8565b5050509392505050565b5f82601f830112620005155762000514620002c4565b5b8151620005278482602086016200046a565b91505092915050565b5f6fffffffffffffffffffffffffffffffff82169050919050565b620005568162000530565b811462000561575f80fd5b50565b5f8151905062000574816200054b565b92915050565b5f805f805f805f80610100898b0312156200059a576200059962000284565b5b5f620005a98b828c01620002ae565b985050602089015167ffffffffffffffff811115620005cd57620005cc62000288565b5b620005db8b828c0162000406565b975050604089015167ffffffffffffffff811115620005ff57620005fe62000288565b5b6200060d8b828c0162000406565b965050606089015167ffffffffffffffff81111562000631576200063062000288565b5b6200063f8b828c0162000406565b955050608089015167ffffffffffffffff81111562000663576200066262000288565b5b620006718b828c01620004fe565b94505060a0620006848b828c0162000564565b93505060c089015167ffffffffffffffff811115620006a857620006a762000288565b5b620006b68b828c0162000406565b92505060e089015167ffffffffffffffff811115620006da57620006d962000288565b5b620006e88b828c0162000406565b9150509295985092959890939650565b5f81519050919050565b7f4e487b71000000000000000000000000000000000000000000000000000000005f52602260045260245ffd5b5f60028204905060018216806200074757607f821691505b6020821081036200075d576200075c62000702565b5b50919050565b5f819050815f5260205f209050919050565b5f6020601f8301049050919050565b5f82821b905092915050565b5f60088302620007c17fffffffffffffffffffffffffffffffffffffffffffffffffffffffffffffffff8262000784565b620007cd868362000784565b95508019841693508086168417925050509392505050565b5f819050919050565b5f6200080e6200080862000802846200028c565b620007e5565b6200028c565b9050919050565b5f819050919050565b6200082983620007ee565b62000841620008388262000815565b84845462000790565b825550505050565b5f90565b6200085762000849565b620008648184846200081e565b505050565b5b818110156200088b576200087f5f826200084d565b6001810190506200086a565b5050565b601f821115620008da57620008a48162000763565b620008af8462000775565b81016020851015620008bf578190505b620008d7620008ce8562000775565b83018262000869565b50505b505050565b5f82821c905092915050565b5f620008fc5f1984600802620008df565b1980831691505092915050565b5f620009168383620008eb565b9150826002028217905092915050565b6200093182620006f8565b67ffffffffffffffff8111156200094d576200094c620002dc565b5b6200095982546200072f565b620009668282856200088f565b5f60209050601f8311600181146200099c575f841562000987578287015190505b62000993858262000909565b86555062000a02565b601f198416620009ac8662000763565b5f5b82811015620009d557848901518255600182019150602085019450602081019050620009ae565b86831015620009f55784890151620009f1601f891682620008eb565b8355505b6001600288020188555050505b505050505050565b61135c8062000a185f395ff3fe608060405234801561000f575f80fd5b5060043610610091575f3560e01c8063323046b111610064578063323046b1146101235780637284e416146101415780638a4d5a671461015f578063b5e7e0c41461017d578063c040e6b8146101ad57610091565b806306fdde0314610095578063071c975d146100b35780632079fb9a146100cf5780632335c76b14610102575b5f80fd5b61009d6101cb565b6040516100aa9190610b12565b60405180910390f35b6100cd60048036038101906100c89190610ca2565b610257565b005b6100e960048036038101906100e49190610d2a565b6105ca565b6040516100f99493929190610da3565b60405180910390f35b61010a610730565b60405161011a9493929190610da3565b60405180910390f35b61012b610878565b6040516101389190610df4565b60405180910390f35b61014961087e565b6040516101569190610b12565b60405180910390f35b61016761090a565b6040516101749190610b12565b60405180910390f35b61019760048036038101906101929190610d2a565b610996565b6040516101a49190610b12565b60405180910390f35b6101b5610a3c565b6040516101c29190610e80565b60405180910390f35b600280546101d890610ec6565b80601f016020809104026020016040519081016040528092919081815260200182805461020490610ec6565b801561024f5780601f106102265761010080835404028352916020019161024f565b820191905f5260205f20905b81548152906001019060200180831161023257829003601f168201915b505050505081565b5f600281111561026a57610269610e0d565b5b5f8054906101000a900460ff16600281111561028957610288610e0d565b5b14610292575f80fd5b61029a610a4c565b33815f019073ffffffffffffffffffffffffffffffffffffffff16908173ffffffffffffffffffffffffffffffffffffffff168152505083816020018190525082816040018190525081816060018181525050600681908060018154018082558091505060019003905f5260205f2090600402015f909190919091505f820151815f015f6101000a81548173ffffffffffffffffffffffffffffffffffffffff021916908373ffffffffffffffffffffffffffffffffffffffff160217905550602082015181600101908161036f9190611093565b5060408201518160020190816103859190611093565b5060608201518160030155505060075f9054906101000a90046fffffffffffffffffffffffffffffffff166fffffffffffffffffffffffffffffffff16600680549050036105c4575f60075f9054906101000a90046fffffffffffffffffffffffffffffffff166fffffffffffffffffffffffffffffffff1667ffffffffffffffff81111561041757610416610b4b565b5b60405190808252806020026020018201604052801561044a57816020015b60608152602001906001900390816104355790505b5090505f5b60075f9054906101000a90046fffffffffffffffffffffffffffffffff166fffffffffffffffffffffffffffffffff16811015610561576006818154811061049a57610499611162565b5b905f5260205f20906004020160010180546104b490610ec6565b80601f01602080910402602001604051908101604052809291908181526020018280546104e090610ec6565b801561052b5780601f106105025761010080835404028352916020019161052b565b820191905f5260205f20905b81548152906001019060200180831161050e57829003601f168201915b505050505082828151811061054357610542611162565b5b60200260200101819052508080610559906111bc565b91505061044f565b60015f806101000a81548160ff0219169083600281111561058557610584610e0d565b5b02179055507f57aba40655eb85dad4c66664ff4563ac3f13fde3a81e9575b902704b28fde5bc826040516105b99190611306565b60405180910390a150505b50505050565b600681815481106105d9575f80fd5b905f5260205f2090600402015f91509050805f015f9054906101000a900473ffffffffffffffffffffffffffffffffffffffff169080600101805461061d90610ec6565b80601f016020809104026020016040519081016040528092919081815260200182805461064990610ec6565b80156106945780601f1061066b57610100808354040283529160200191610694565b820191905f5260205f20905b81548152906001019060200180831161067757829003601f168201915b5050505050908060020180546106a990610ec6565b80601f01602080910402602001604051908101604052809291908181526020018280546106d590610ec6565b80156107205780601f106106f757610100808354040283529160200191610720565b820191905f5260205f20905b81548152906001019060200180831161070357829003601f168201915b5050505050908060030154905084565b6008805f015f9054906101000a900473ffffffffffffffffffffffffffffffffffffffff169080600101805461076590610ec6565b80601f016020809104026020016040519081016040528092919081815260200182805461079190610ec6565b80156107dc5780601f106107b3576101008083540402835291602001916107dc565b820191905f5260205f20905b8154815290600101906020018083116107bf57829003601f168201915b5050505050908060020180546107f190610ec6565b80601f016020809104026020016040519081016040528092919081815260200182805461081d90610ec6565b80156108685780601f1061083f57610100808354040283529160200191610868565b820191905f5260205f20905b81548152906001019060200180831161084b57829003601f168201915b5050505050908060030154905084565b60015481565b6003805461088b90610ec6565b80601f01602080910402602001604051908101604052809291908181526020018280546108b790610ec6565b80156109025780601f106108d957610100808354040283529160200191610902565b820191905f5260205f20905b8154815290600101906020018083116108e557829003601f168201915b505050505081565b6004805461091790610ec6565b80601f016020809104026020016040519081016040528092919081815260200182805461094390610ec6565b801561098e5780601f106109655761010080835404028352916020019161098e565b820191905f5260205f20905b81548152906001019060200180831161097157829003601f168201915b505050505081565b600581815481106109a5575f80fd5b905f5260205f20015f9150905080546109bd90610ec6565b80601f01602080910402602001604051908101604052809291908181526020018280546109e990610ec6565b8015610a345780601f10610a0b57610100808354040283529160200191610a34565b820191905f5260205f20905b815481529060010190602001808311610a1757829003601f168201915b505050505081565b5f8054906101000a900460ff1681565b60405180608001604052805f73ffffffffffffffffffffffffffffffffffffffff16815260200160608152602001606081526020015f81525090565b5f81519050919050565b5f82825260208201905092915050565b5f5b83811015610abf578082015181840152602081019050610aa4565b5f8484015250505050565b5f601f19601f8301169050919050565b5f610ae482610a88565b610aee8185610a92565b9350610afe818560208601610aa2565b610b0781610aca565b840191505092915050565b5f6020820190508181035f830152610b2a8184610ada565b905092915050565b5f604051905090565b5f80fd5b5f80fd5b5f80fd5b5f80fd5b7f4e487b71000000000000000000000000000000000000000000000000000000005f52604160045260245ffd5b610b8182610aca565b810181811067ffffffffffffffff82111715610ba057610b9f610b4b565b5b80604052505050565b5f610bb2610b32565b9050610bbe8282610b78565b919050565b5f67ffffffffffffffff821115610bdd57610bdc610b4b565b5b610be682610aca565b9050602081019050919050565b828183375f83830152505050565b5f610c13610c0e84610bc3565b610ba9565b905082815260208101848484011115610c2f57610c2e610b47565b5b610c3a848285610bf3565b509392505050565b5f82601f830112610c5657610c55610b43565b5b8135610c66848260208601610c01565b91505092915050565b5f819050919050565b610c8181610c6f565b8114610c8b575f80fd5b50565b5f81359050610c9c81610c78565b92915050565b5f805f60608486031215610cb957610cb8610b3b565b5b5f84013567ffffffffffffffff811115610cd657610cd5610b3f565b5b610ce286828701610c42565b935050602084013567ffffffffffffffff811115610d0357610d02610b3f565b5b610d0f86828701610c42565b9250506040610d2086828701610c8e565b9150509250925092565b5f60208284031215610d3f57610d3e610b3b565b5b5f610d4c84828501610c8e565b91505092915050565b5f73ffffffffffffffffffffffffffffffffffffffff82169050919050565b5f610d7e82610d55565b9050919050565b610d8e81610d74565b82525050565b610d9d81610c6f565b82525050565b5f608082019050610db65f830187610d85565b8181036020830152610dc88186610ada565b90508181036040830152610ddc8185610ada565b9050610deb6060830184610d94565b95945050505050565b5f602082019050610e075f830184610d94565b92915050565b7f4e487b71000000000000000000000000000000000000000000000000000000005f52602160045260245ffd5b60038110610e4b57610e4a610e0d565b5b50565b5f819050610e5b82610e3a565b919050565b5f610e6a82610e4e565b9050919050565b610e7a81610e60565b82525050565b5f602082019050610e935f830184610e71565b92915050565b7f4e487b71000000000000000000000000000000000000000000000000000000005f52602260045260245ffd5b5f6002820490506001821680610edd57607f821691505b602082108103610ef057610eef610e99565b5b50919050565b5f819050815f5260205f209050919050565b5f6020601f8301049050919050565b5f82821b905092915050565b5f60088302610f527fffffffffffffffffffffffffffffffffffffffffffffffffffffffffffffffff82610f17565b610f5c8683610f17565b95508019841693508086168417925050509392505050565b5f819050919050565b5f610f97610f92610f8d84610c6f565b610f74565b610c6f565b9050919050565b5f819050919050565b610fb083610f7d565b610fc4610fbc82610f9e565b848454610f23565b825550505050565b5f90565b610fd8610fcc565b610fe3818484610fa7565b505050565b5b8181101561100657610ffb5f82610fd0565b600181019050610fe9565b5050565b601f82111561104b5761101c81610ef6565b61102584610f08565b81016020851015611034578190505b61104861104085610f08565b830182610fe8565b50505b505050565b5f82821c905092915050565b5f61106b5f1984600802611050565b1980831691505092915050565b5f611083838361105c565b9150826002028217905092915050565b61109c82610a88565b67ffffffffffffffff8111156110b5576110b4610b4b565b5b6110bf8254610ec6565b6110ca82828561100a565b5f60209050601f8311600181146110fb575f84156110e9578287015190505b6110f38582611078565b86555061115a565b601f19841661110986610ef6565b5f5b828110156111305784890151825560018201915060208501945060208101905061110b565b8683101561114d5784890151611149601f89168261105c565b8355505b6001600288020188555050505b505050505050565b7f4e487b71000000000000000000000000000000000000000000000000000000005f52603260045260245ffd5b7f4e487b71000000000000000000000000000000000000000000000000000000005f52601160045260245ffd5b5f6111c682610c6f565b91507fffffffffffffffffffffffffffffffffffffffffffffffffffffffffffffffff82036111f8576111f761118f565b5b600182019050919050565b5f81519050919050565b5f82825260208201905092915050565b5f819050602082019050919050565b5f82825260208201905092915050565b5f61124682610a88565b611250818561122c565b9350611260818560208601610aa2565b61126981610aca565b840191505092915050565b5f61127f838361123c565b905092915050565b5f602082019050919050565b5f61129d82611203565b6112a7818561120d565b9350836020820285016112b98561121d565b805f5b858110156112f457848403895281516112d58582611274565b94506112e083611287565b925060208a019950506001810190506112bc565b50829750879550505050505092915050565b5f6020820190508181035f83015261131e8184611293565b90509291505056fea264697066735822122093791eaab4ccf2d4320016f02f27e775ddf6583256c34ccd7a4ff898b59aaef864736f6c63430008150033",
  "immutableReferences": {},
  "source": "// SPDX-License-Identifier: MIT\r\npragma solidity >=0.8.0 <0.9.0;\r\n\r\ncontract Contract {\r\n    struct Signer {\r\n        address addr;\r\n        string name; //name of signer\r\n        string hash; //recreatable hash of signer\r\n        uint256 dateSigned; //date of signing (unix timestamp)\r\n    }\r\n\r\n    enum Stage{ SIGNING, VERIFYING, VERIFIED }\r\n\r\n    Stage public stage = Stage.SIGNING;\r\n    uint256 public date; //creation date of contract (unix timestamp)\r\n    string public name; //name of contract\r\n    string public description; //description of contract\r\n    string public content;\r\n    string[] public termsNconditions;\r\n    Signer[] public signers;\r\n    uint128 totalSignerCount; //total number of signers\r\n    Signer public authenticator; //final authenticator\r\n\r\n    /* only authenticator can call constructor */\r\n    constructor(\r\n        uint256 _date, \r\n        string memory _name, \r\n        string memory _description, \r\n        string memory _content, \r\n        string[] memory _terms, \r\n        uint128 _totalSignerCount,\r\n        string memory _authName,\r\n        string memory _authHash\r\n    ) {\r\n        date = _date;\r\n        name = _name;\r\n        description = _description;\r\n        content = _content;\r\n        termsNconditions = _terms;\r\n        totalSignerCount = _totalSignerCount;\r\n        authenticator.addr = msg.sender;\r\n        authenticator.name = _authName;\r\n        authenticator.hash = _authHash;\r\n    }\r\n\r\n    modifier onlySigning {\r\n        require(stage == Stage.SIGNING);\r\n        _;\r\n    }\r\n\r\n    modifier onlyVerifying {\r\n        require(stage == Stage.VERIFYING);\r\n        _;\r\n    }\r\n\r\n    modifier onlyAuthenticator {\r\n        require(msg.sender == authenticator.addr);\r\n        _;\r\n    }\r\n\r\n    event signingComplete(string[] signers);\r\n\r\n    function sign(string memory _name, string memory _hash, uint256 _date) public onlySigning{\r\n        Signer memory newSigner;\r\n        newSigner.addr = msg.sender;\r\n        newSigner.name = _name;\r\n        newSigner.hash = _hash;\r\n        newSigner.dateSigned = _date;\r\n        signers.push(newSigner);\r\n\r\n        if (signers.length == totalSignerCount) {\r\n            //emit event\r\n            string[] memory _signers = new string[](totalSignerCount);\r\n            uint i;\r\n            for (i = 0; i < totalSignerCount; i++) {\r\n                _signers[i] = signers[i].name;\r\n            }\r\n            stage = Stage.VERIFYING;\r\n            emit signingComplete(_signers);\r\n        }\r\n    }\r\n}",
  "sourcePath": "D:\\codes\\Smart-Kagaj\\truffle\\contracts\\Kagaj.sol",
  "compiler": {
    "name": "solc",
    "version": "0.8.21+commit.d9974bed.Emscripten.clang"
  },
  "schemaVersion": "3.4.16",
  "updatedAt": "2023-09-29T08:51:18.108Z",
  "devdoc": {
    "kind": "dev",
    "methods": {},
    "version": 1
  },
  "userdoc": {
    "kind": "user",
    "methods": {},
    "version": 1
  }
}